{
  "contractName": "Faucet",
  "abi": [
    {
      "inputs": [],
      "stateMutability": "nonpayable",
      "type": "constructor"
    },
    {
      "inputs": [],
      "name": "owner",
      "outputs": [
        {
          "internalType": "address",
          "name": "",
          "type": "address"
        }
      ],
      "stateMutability": "view",
      "type": "function",
      "constant": true
    },
    {
      "stateMutability": "payable",
      "type": "receive",
      "payable": true
    },
    {
      "inputs": [],
      "name": "addFunds",
      "outputs": [],
      "stateMutability": "payable",
      "type": "function",
      "payable": true
    },
    {
      "inputs": [],
      "name": "getAllFunders",
      "outputs": [
        {
          "internalType": "address[]",
          "name": "",
          "type": "address[]"
        }
      ],
      "stateMutability": "view",
      "type": "function",
      "constant": true
    },
    {
      "inputs": [
        {
          "internalType": "uint256",
          "name": "_index",
          "type": "uint256"
        }
      ],
      "name": "getFunderAtIndex",
      "outputs": [
        {
          "internalType": "address",
          "name": "",
          "type": "address"
        }
      ],
      "stateMutability": "view",
      "type": "function",
      "constant": true
    },
    {
      "inputs": [
        {
          "internalType": "uint256",
          "name": "withdrawAmount",
          "type": "uint256"
        }
      ],
      "name": "withdraw",
      "outputs": [],
      "stateMutability": "nonpayable",
      "type": "function"
    },
    {
      "inputs": [],
      "name": "getOwner",
      "outputs": [
        {
          "internalType": "address",
          "name": "",
          "type": "address"
        }
      ],
      "stateMutability": "view",
      "type": "function",
      "constant": true
    }
  ],
  "bytecode": "0x608060405234801561001057600080fd5b50336000806101000a81548173ffffffffffffffffffffffffffffffffffffffff021916908373ffffffffffffffffffffffffffffffffffffffff160217905550336000806101000a81548173ffffffffffffffffffffffffffffffffffffffff021916908373ffffffffffffffffffffffffffffffffffffffff160217905550610902806100a06000396000f3fe6080604052600436106100595760003560e01c80632e1a7d4d146100655780636fbbb55d1461008e578063893d20e8146100b95780638da5cb5b146100e4578063a26759cb1461010f578063c218deca1461011957610060565b3661006057005b600080fd5b34801561007157600080fd5b5061008c60048036038101906100879190610559565b610156565b005b34801561009a57600080fd5b506100a36101ed565b6040516100b09190610676565b60405180910390f35b3480156100c557600080fd5b506100ce6102e7565b6040516100db91906106a7565b60405180910390f35b3480156100f057600080fd5b506100f961039e565b60405161010691906106a7565b60405180910390f35b6101176103c2565b005b34801561012557600080fd5b50610140600480360381019061013b9190610559565b6104e1565b60405161014d91906106a7565b60405180910390f35b80670de0b6b3a76400008111156101a2576040517f08c379a000000000000000000000000000000000000000000000000000000000815260040161019990610745565b60405180910390fd5b3373ffffffffffffffffffffffffffffffffffffffff166108fc839081150290604051600060405180830381858888f193505050501580156101e8573d6000803e3d6000fd5b505050565b6060600060035467ffffffffffffffff81111561020d5761020c610765565b5b60405190808252806020026020018201604052801561023b5781602001602082028036833780820191505090505b50905060005b6003548110156102df576002600082815260200190815260200160002060009054906101000a900473ffffffffffffffffffffffffffffffffffffffff1682828151811061029257610291610794565b5b602002602001019073ffffffffffffffffffffffffffffffffffffffff16908173ffffffffffffffffffffffffffffffffffffffff168152505080806102d7906107f2565b915050610241565b508091505090565b60008060009054906101000a900473ffffffffffffffffffffffffffffffffffffffff1673ffffffffffffffffffffffffffffffffffffffff163373ffffffffffffffffffffffffffffffffffffffff1614610378576040517f08c379a000000000000000000000000000000000000000000000000000000000815260040161036f906108ac565b60405180910390fd5b60008054906101000a900473ffffffffffffffffffffffffffffffffffffffff16905090565b60008054906101000a900473ffffffffffffffffffffffffffffffffffffffff1681565b6000339050600160008273ffffffffffffffffffffffffffffffffffffffff1673ffffffffffffffffffffffffffffffffffffffff16815260200190815260200160002060009054906101000a900460ff166104de5760006003600081548092919061042d906107f2565b91905055905060018060008473ffffffffffffffffffffffffffffffffffffffff1673ffffffffffffffffffffffffffffffffffffffff16815260200190815260200160002060006101000a81548160ff021916908315150217905550816002600083815260200190815260200160002060006101000a81548173ffffffffffffffffffffffffffffffffffffffff021916908373ffffffffffffffffffffffffffffffffffffffff160217905550505b50565b60006002600083815260200190815260200160002060009054906101000a900473ffffffffffffffffffffffffffffffffffffffff169050919050565b600080fd5b6000819050919050565b61053681610523565b811461054157600080fd5b50565b6000813590506105538161052d565b92915050565b60006020828403121561056f5761056e61051e565b5b600061057d84828501610544565b91505092915050565b600081519050919050565b600082825260208201905092915050565b6000819050602082019050919050565b600073ffffffffffffffffffffffffffffffffffffffff82169050919050565b60006105dd826105b2565b9050919050565b6105ed816105d2565b82525050565b60006105ff83836105e4565b60208301905092915050565b6000602082019050919050565b600061062382610586565b61062d8185610591565b9350610638836105a2565b8060005b8381101561066957815161065088826105f3565b975061065b8361060b565b92505060018101905061063c565b5085935050505092915050565b600060208201905081810360008301526106908184610618565b905092915050565b6106a1816105d2565b82525050565b60006020820190506106bc6000830184610698565b92915050565b600082825260208201905092915050565b7f63616e206e6f74207769746864726177206d6f7265207468616e20312065746860008201527f6572000000000000000000000000000000000000000000000000000000000000602082015250565b600061072f6022836106c2565b915061073a826106d3565b604082019050919050565b6000602082019050818103600083015261075e81610722565b9050919050565b7f4e487b7100000000000000000000000000000000000000000000000000000000600052604160045260246000fd5b7f4e487b7100000000000000000000000000000000000000000000000000000000600052603260045260246000fd5b7f4e487b7100000000000000000000000000000000000000000000000000000000600052601160045260246000fd5b60006107fd82610523565b91507fffffffffffffffffffffffffffffffffffffffffffffffffffffffffffffffff820361082f5761082e6107c3565b5b600182019050919050565b7f4f6e6c79206f776e65722063616e2063616c6c20746869732066756e6374696f60008201527f6e00000000000000000000000000000000000000000000000000000000000000602082015250565b60006108966021836106c2565b91506108a18261083a565b604082019050919050565b600060208201905081810360008301526108c581610889565b905091905056fea2646970667358221220d6bb41de04a83112df657acb9e12c9cae8d51455fb9d306c330b76d30023566a64736f6c634300080d0033",
  "immutableReferences": {},
  "source": "// SPDX-License-Identifier: MIT\npragma solidity >=0.4.22 <0.9.0;\n\nimport './Owned.sol';\n\ncontract Faucet is  Owned{\n    mapping(address => bool) private funders;\n    mapping(uint => address) private lutFunders;\n    uint private numberOfFunders;\n\n    constructor() {\n        owner = msg.sender;\n    }\n\n    receive() external payable {}\n    function addFunds() external payable {\n        address funder = msg.sender;\n\n        if(!funders[funder]) {\n            uint index = numberOfFunders++;\n            funders[funder] = true;\n            lutFunders[index] = funder;\n        }\n    }\n\n    modifier limitWithdraw(uint withdrawAmount) {\n        require(withdrawAmount <= 1000000000000000000, 'can not withdraw more than 1 ether');\n        _;    \n    }\n\n    function getAllFunders() external view returns(address[] memory) {\n        address[] memory _funders = new address[](numberOfFunders);\n        for(uint i = 0; i < numberOfFunders; i++) {\n            _funders[i] = lutFunders[i];\n        }\n\n        return _funders;\n    }\n\n    function getFunderAtIndex(uint _index) external view returns(address) {\n        return lutFunders[_index];\n    }\n\n    function withdraw(uint withdrawAmount) external limitWithdraw(withdrawAmount) {\n        payable(msg.sender).transfer(withdrawAmount);\n    }\n\n    function getOwner() external onlyOwner view returns(address) {\n        return owner;\n    }\n}\n\n// const instance = await Faucet.deployed()\n// instance.addFunds({value: '200000000000', from: accounts[0]})\n// instance.addFunds({value: '200000000000', from: accounts[1]})\n// instance.getFunderAtIndex(0)\n// instance.withdraw(50000000000000, {from: ''})",
  "sourcePath": "/home/prosper/Documents/web3-react-test/contracts/FaucetContract.sol",
  "compiler": {
    "name": "solc",
    "version": "0.8.13+commit.abaa5c0e.Emscripten.clang"
  },
  "schemaVersion": "3.4.7",
  "updatedAt": "2022-05-28T14:04:25.512Z",
  "networkType": "ethereum",
  "devdoc": {
    "kind": "dev",
    "methods": {},
    "version": 1
  },
  "userdoc": {
    "kind": "user",
    "methods": {},
    "version": 1
  }
}